{
  "_format": "hh-sol-artifact-1",
  "contractName": "FHESnake",
  "sourceName": "contracts/FHESnake.sol",
  "abi": [
    {
      "inputs": [],
      "name": "ZamaProtocolUnsupported",
      "type": "error"
    },
    {
      "inputs": [],
      "name": "confidentialProtocolId",
      "outputs": [
        {
          "internalType": "uint256",
          "name": "",
          "type": "uint256"
        }
      ],
      "stateMutability": "view",
      "type": "function"
    },
    {
      "inputs": [
        {
          "internalType": "address",
          "name": "player",
          "type": "address"
        }
      ],
      "name": "getLongestLength",
      "outputs": [
        {
          "internalType": "euint32",
          "name": "",
          "type": "bytes32"
        }
      ],
      "stateMutability": "view",
      "type": "function"
    },
    {
      "inputs": [
        {
          "internalType": "address",
          "name": "player",
          "type": "address"
        }
      ],
      "name": "hasPlayed",
      "outputs": [
        {
          "internalType": "bool",
          "name": "",
          "type": "bool"
        }
      ],
      "stateMutability": "view",
      "type": "function"
    },
    {
      "inputs": [
        {
          "internalType": "externalEuint32",
          "name": "encryptedLength",
          "type": "bytes32"
        },
        {
          "internalType": "bytes",
          "name": "zkProof",
          "type": "bytes"
        }
      ],
      "name": "updateLength",
      "outputs": [],
      "stateMutability": "nonpayable",
      "type": "function"
    }
  ],
  "bytecode": "0x608060405234801561000f575f5ffd5b506100c461001b6100c9565b80517f9e7b61f58c47dc699ac88507c4f5bb9f121c03808c5676a8078fe583e464970080546001600160a01b03199081166001600160a01b039384161790915560208301517f9e7b61f58c47dc699ac88507c4f5bb9f121c03808c5676a8078fe583e46497018054831691841691909117905560408301517f9e7b61f58c47dc699ac88507c4f5bb9f121c03808c5676a8078fe583e46497028054909216921691909117905550565b610238565b604080516060810182525f808252602082018190529181019190915246600103610122575060408051606080820183525f8083526020808401829052928401819052835191820184528082529181018290529182015290565b4662aa36a7036101a1575060408051606080820183525f8083526020808401829052928401528251908101835273f0ffdc93b7e186bc2f8cb3daa75d86d1930a433d81527392c920834ec8941d2c77d188936e1f7a6f49c1279181019190915273be0e383937d564d7ff0bc3b46c51f0bf8d5c311a9181019190915290565b46617a690361021f575060408051606080820183525f8083526020808401829052928401528251908101835273f0ffdc93b7e186bc2f8cb3daa75d86d1930a433d81527392c920834ec8941d2c77d188936e1f7a6f49c1279181019190915273be0e383937d564d7ff0bc3b46c51f0bf8d5c311a9181019190915290565b6040516373cac13b60e01b815260040160405180910390fd5b6108c4806102455f395ff3fe608060405234801561000f575f5ffd5b506004361061004a575f3560e01c80631d46ae321461004e57806332d0bbe3146100745780638927b030146100af578063da71edd9146100b7575b5f5ffd5b61006161005c36600461077e565b6100cc565b6040519081526020015b60405180910390f35b61009f61008236600461077e565b6001600160a01b03165f9081526001602052604090205460ff1690565b604051901515815260200161006b565b610061610152565b6100ca6100c53660046107a4565b610160565b005b6001600160a01b0381165f9081526001602052604081205460ff166101375760405162461bcd60e51b815260206004820152601e60248201527f464845536e616b653a20706c6179657220686173206e6f207265636f72640000604482015260640160405180910390fd5b506001600160a01b03165f9081526020819052604090205490565b5f61015b610286565b905090565b5f6101a08484848080601f0160208091040260200160405190810160405280939291908181526020018383808284375f920191909152506102ba92505050565b90506101ac81336102ce565b506101b6816102e0565b50335f9081526001602052604090205460ff161561023257335f90815260208190526040812054906101f26101eb84846102ef565b848461031d565b335f8181526020819052604090208290559091506102119082906102ce565b50335f9081526020819052604090205461022a906102e0565b505050610280565b335f818152602081815260408083208581556001808452918420805460ff191690921790915591905254610265916102ce565b50335f9081526020819052604090205461027e906102e0565b505b50505050565b5f466001036102955750600190565b4662aa36a7036102a6575061271190565b46617a69036102b557505f1990565b505f90565b5f6102c783836004610364565b9392505050565b5f6102d98383610484565b5090919050565b5f6102eb8230610484565b5090565b5f82610301576102fe5f61050d565b92505b816103125761030f5f61050d565b91505b6102c783835f610525565b5f8361032f5761032c5f610605565b93505b826103405761033d5f61050d565b92505b816103515761034e5f61050d565b91505b61035c848484610620565b949350505050565b7f9e7b61f58c47dc699ac88507c4f5bb9f121c03808c5676a8078fe583e46497015460405163045fc19560e11b81525f917f9e7b61f58c47dc699ac88507c4f5bb9f121c03808c5676a8078fe583e4649700916001600160a01b03909116906308bf832a906103dd90889033908990899060040161083b565b6020604051808303815f875af11580156103f9573d5f5f3e3d5ffd5b505050506040513d601f19601f8201168201806040525081019061041d919061088c565b8154604051630f8e573b60e21b8152600481018390523360248201529193506001600160a01b031690633e395cec906044015f604051808303815f87803b158015610466575f5ffd5b505af1158015610478573d5f5f3e3d5ffd5b50505050509392505050565b5f7f9e7b61f58c47dc699ac88507c4f5bb9f121c03808c5676a8078fe583e46497008054604051635ca4b5b160e11b8152600481018690526001600160a01b03858116602483015292935091169063b9496b62906044015f604051808303815f87803b1580156104f2575f5ffd5b505af1158015610504573d5f5f3e3d5ffd5b50505050505050565b5f61051f8263ffffffff1660046106c9565b92915050565b5f5f82156105385750600160f81b61053b565b505f5b5f7f9e7b61f58c47dc699ac88507c4f5bb9f121c03808c5676a8078fe583e464970060018101546040516385362ee760e01b815260048101899052602481018890527fff00000000000000000000000000000000000000000000000000000000000000851660448201529192506001600160a01b0316906385362ee7906064016020604051808303815f875af11580156105d7573d5f5f3e3d5ffd5b505050506040513d601f19601f820116820180604052508101906105fb919061088c565b9695505050505050565b5f61051f82610614575f610617565b60015b60ff165f6106c9565b5f807f9e7b61f58c47dc699ac88507c4f5bb9f121c03808c5676a8078fe583e46497006001810154604051637702dcff60e01b81526004810188905260248101879052604481018690529192506001600160a01b031690637702dcff906064016020604051808303815f875af115801561069c573d5f5f3e3d5ffd5b505050506040513d601f19601f820116820180604052508101906106c0919061088c565b95945050505050565b7f9e7b61f58c47dc699ac88507c4f5bb9f121c03808c5676a8078fe583e464970154604051639cd07acb60e01b81525f917f9e7b61f58c47dc699ac88507c4f5bb9f121c03808c5676a8078fe583e4649700916001600160a01b0390911690639cd07acb9061073e90879087906004016108a3565b6020604051808303815f875af115801561075a573d5f5f3e3d5ffd5b505050506040513d601f19601f8201168201806040525081019061035c919061088c565b5f6020828403121561078e575f5ffd5b81356001600160a01b03811681146102c7575f5ffd5b5f5f5f604084860312156107b6575f5ffd5b83359250602084013567ffffffffffffffff8111156107d3575f5ffd5b8401601f810186136107e3575f5ffd5b803567ffffffffffffffff8111156107f9575f5ffd5b86602082840101111561080a575f5ffd5b939660209190910195509293505050565b6054811061083757634e487b7160e01b5f52602160045260245ffd5b9052565b8481526001600160a01b0384166020820152608060408201525f8351806080840152806020860160a085015e5f60a0828501015260a0601f19601f8301168401019150506106c0606083018461081b565b5f6020828403121561089c575f5ffd5b5051919050565b828152604081016102c7602083018461081b56fea164736f6c634300081b000a",
  "linkReferences": {},
  "deployedLinkReferences": {}
}